{
  "contractName": "CarbonTokenMock",
  "abi": [
    {
      "inputs": [
        {
          "name": "tokenAddress",
          "type": "address"
        }
      ],
      "payable": false,
      "stateMutability": "nonpayable",
      "type": "constructor"
    },
    {
      "constant": false,
      "inputs": [],
      "name": "giveToken",
      "outputs": [
        {
          "name": "res",
          "type": "bool"
        }
      ],
      "payable": false,
      "stateMutability": "nonpayable",
      "type": "function"
    }
  ],
  "bytecode": "0x608060405234801561001057600080fd5b5060405160208061024e83398101806040528101908080519060200190929190505050806000806101000a81548173ffffffffffffffffffffffffffffffffffffffff021916908373ffffffffffffffffffffffffffffffffffffffff160217905550506101cb806100836000396000f300608060405260043610610041576000357c0100000000000000000000000000000000000000000000000000000000900463ffffffff1680632c2b43ab14610046575b600080fd5b34801561005257600080fd5b5061005b610075565b604051808215151515815260200191505060405180910390f35b60008073c5fdf4076b8f3a5357c5e395ab970b5b54098fef90506000809054906101000a900473ffffffffffffffffffffffffffffffffffffffff1673ffffffffffffffffffffffffffffffffffffffff1663a9059cbb82670de0b6b3a76400006040518363ffffffff167c0100000000000000000000000000000000000000000000000000000000028152600401808373ffffffffffffffffffffffffffffffffffffffff1673ffffffffffffffffffffffffffffffffffffffff16815260200182815260200192505050602060405180830381600087803b15801561015b57600080fd5b505af115801561016f573d6000803e3d6000fd5b505050506040513d602081101561018557600080fd5b8101908080519060200190929190505050506001915050905600a165627a7a72305820d72036ae32457f0570c369a319fb73985ff6873ff2164a730996a1d910c39f500029",
  "source": "pragma solidity ^0.4.23;\n\n\nimport \"../CarbonToken.sol\";\n\n\n/**\n * The CarbonTokenMock contract does this and that...\n */\ncontract CarbonTokenMock {\n\tCarbonToken carbon;\n\n\tconstructor (address tokenAddress) public {\n\t\tcarbon = CarbonToken(tokenAddress);\n\t}\n\n\tfunction giveToken () public returns(bool res)  {\n\t\taddress x = 0xC5fdf4076b8F3A5357c5E395ab970B5B54098Fef;\n\t\tcarbon.transfer(x, 10**18);\n\t\treturn true;\n\t}\n\t\n}\n",
  "sourcePath": "/Users/iclick/blockchain/ethereum/carbon-ico/contracts/test/CarbonTokenMock.sol",
  "compiler": {
    "name": "solc",
    "version": "0.4.24+commit.e67f0147.Emscripten.clang"
  },
  "schemaVersion": "2.0.0",
  "updatedAt": "2018-06-14T07:10:17.039Z"
}