{
  "contractName": "SafeMathLib",
  "abi": [
    {
      "constant": true,
      "inputs": [
        {
          "name": "a",
          "type": "uint256"
        },
        {
          "name": "b",
          "type": "uint256"
        }
      ],
      "name": "add",
      "outputs": [
        {
          "name": "",
          "type": "uint256"
        }
      ],
      "payable": false,
      "stateMutability": "pure",
      "type": "function"
    },
    {
      "constant": true,
      "inputs": [
        {
          "name": "a",
          "type": "uint256"
        },
        {
          "name": "b",
          "type": "uint256"
        }
      ],
      "name": "sub",
      "outputs": [
        {
          "name": "",
          "type": "uint256"
        }
      ],
      "payable": false,
      "stateMutability": "pure",
      "type": "function"
    },
    {
      "constant": true,
      "inputs": [
        {
          "name": "a",
          "type": "uint256"
        },
        {
          "name": "b",
          "type": "uint256"
        }
      ],
      "name": "mul",
      "outputs": [
        {
          "name": "",
          "type": "uint256"
        }
      ],
      "payable": false,
      "stateMutability": "pure",
      "type": "function"
    },
    {
      "constant": true,
      "inputs": [
        {
          "name": "a",
          "type": "uint256"
        },
        {
          "name": "b",
          "type": "uint256"
        }
      ],
      "name": "div",
      "outputs": [
        {
          "name": "",
          "type": "uint256"
        }
      ],
      "payable": false,
      "stateMutability": "pure",
      "type": "function"
    }
  ],
  "bytecode": "0x610233610030600b82828239805160001a6073146000811461002057610022565bfe5b5030600052607381538281f3007300000000000000000000000000000000000000003014608060405260043610610079576000357c0100000000000000000000000000000000000000000000000000000000900463ffffffff168063771602f71461007e578063a391c15b146100bc578063b67d77c5146100fa578063c8a4ac9c14610138575b600080fd5b6100a66004803603810190808035906020019092919080359060200190929190505050610176565b6040518082815260200191505060405180910390f35b6100e460048036038101908080359060200190929190803590602001909291905050506101a0565b6040518082815260200191505060405180910390f35b61012260048036038101908080359060200190929190803590602001909291905050506101bb565b6040518082815260200191505060405180910390f35b61016060048036038101908080359060200190929190803590602001909291905050506101d4565b6040518082815260200191505060405180910390f35b600080828401905083811015801561018e5750828110155b151561019657fe5b8091505092915050565b60008082848115156101ae57fe5b0490508091505092915050565b60008282111515156101c957fe5b818303905092915050565b600080828402905060008414806101f557508284828115156101f257fe5b04145b15156101fd57fe5b80915050929150505600a165627a7a72305820700a0c30e96656c1966c4656577ff61ae3cf423cb8df37905e867b8cb0ffde970029",
  "source": "pragma solidity ^0.4.23;\n\n/**\n * The SafeMathLib library does this and that...\n */\nlibrary SafeMathLib {\n\n  function add(uint256 a, uint256 b) public pure returns (uint256) {\n    uint256 c = a + b;\n    assert(c>=a && c>=b);\n    return c;\n  }\n\n  function sub(uint256 a, uint256 b) public pure returns (uint256) {\n    assert(b <= a);\n    return a - b;\n  }\n\n  function mul(uint256 a, uint256 b) public pure returns (uint256) {\n    uint256 c = a * b;\n    assert(a == 0 || c / a == b);\n    return c;\n  }\n\n  function div(uint256 a, uint256 b) public pure returns (uint256) {\n    uint256 c = a / b;\n    return c;\n  }\n}\n",
  "sourcePath": "/Users/iclick/blockchain/ethereum/carbon-ico/contracts/SafeMathLib.sol",
  "compiler": {
    "name": "solc",
    "version": "0.4.24+commit.e67f0147.Emscripten.clang"
  },
  "schemaVersion": "2.0.0",
  "updatedAt": "2018-06-23T02:27:02.850Z"
}